:100000000C945D000C9485000C9485000C94850084
:100010000C9485000C9485000C9485000C9485004C
:100020000C9485000C9485000C9485000C9485003C
:100030000C9485000C9485000C9485000C9485002C
:100040000C94390E0C9485000C94A90E0C94830E1C
:100050000C9485000C9485000C9485000C9485000C
:100060000C9485000C9485000000000024002700FB
:100070002A0000000000250028002B0004040404CE
:100080000404040402020202020203030303030342
:10009000010204081020408001020408102001021F
:1000A00004081020000000080002010000030407FB
:1000B0000000000000000000DB0E11241FBECFEF87
:1000C000D8E0DEBFCDBF23E0AAEBB2E001C01D92B5
:1000D000AB38B207E1F712E0A0E0B1E0ECE7F8E2FC
:1000E00002C005900D92AA3BB107D9F710E0CDE50B
:1000F000D0E004C02197FE010E943114CC35D10715
:10010000C9F70E94240F0C943C140C9400008CBD81
:100110009DBD089590E0FC01EC55FF4F2491FC013A
:10012000E057FF4F3491FC01E458FF4FE491EE2378
:10013000C9F0222339F0233001F1A8F4213019F15C
:10014000223029F1F0E0EE0FFF1FEE58FF4FA5918E
:10015000B4918FB7F894EC91611126C030953E238D
:100160003C938FBF08952730A9F02830C9F0243080
:1001700049F7809180008F7D03C0809180008F7748
:1001800080938000DFCF84B58F7784BDDBCF84B5CB
:100190008F7DFBCF8091B0008F778093B000D2CF5E
:1001A0008091B0008F7DF9CF3E2BDACFCF93DF93D4
:1001B00090E0FC01E057FF4F249184589F4FFC01D1
:1001C00084918823D1F090E0880F991FFC01E859B1
:1001D000FF4FA591B491FC01EE58FF4FC591D4910A
:1001E00061110EC09FB7F8948C91E22FE0958E2399
:1001F0008C932881E223E8839FBFDF91CF910895FC
:100200008FB7F894EC91E22BEC938FBFF6CF8E3042
:1002100008F08E508770806480937C0080917A0013
:10022000806480937A0080917A0086FDFCCF809173
:1002300078009091790008953FB7F8948091DC029E
:100240009091DD02A091DE02B091DF0226B5A89B5D
:1002500005C02F3F19F00196A11DB11D3FBFBA2F58
:10026000A92F982F8827BC01CD01620F711D811D18
:10027000911D42E0660F771F881F991F4A95D1F79D
:1002800008958F929F92AF92BF92CF92DF92EF929A
:10029000FF924B015C010E941C016B017C010E94DA
:1002A0001C016C197D098E099F09683E7340810508
:1002B0009105A8F321E0821A9108A108B10888EEFF
:1002C000C80E83E0D81EE11CF11C81149104A10426
:1002D000B10429F7FF90EF90DF90CF90BF90AF90DF
:1002E0009F908F900895AF92BF92CF92DF92EF923E
:1002F000FF920F931F93CF93DF936C017B018B01D0
:10030000040F151FEB015E01AE18BF08C017D1071F
:1003100059F06991D601ED91FC910190F081E02DA9
:10032000C6010995892B79F7C501DF91CF911F91FE
:100330000F91FF90EF90DF90CF90BF90AF90089516
:10034000FC01538D448D252F30E0842F90E0821BDB
:10035000930B541710F0CF96089501970895FC0160
:10036000918D828D981761F0A28DAE0FBF2FB11DB8
:100370005D968C91928D9F5F9F73928F90E0089510
:100380008FEF9FEF0895FC01918D828D981731F0CA
:10039000828DE80FF11D858D90E008958FEF9FEF1E
:1003A0000895FC01918D228D892F90E0805C9F4FF4
:1003B000821B91098F739927089580EE92E00E9425
:1003C000D10121E0892B09F420E0822F089580E0FB
:1003D00090E0892B29F00E94DD0181110C9400002E
:1003E0000895FC01A48DA80FB92FB11DA35ABF4FCA
:1003F0002C91848D90E001968F739927848FA68924
:10040000B7892C93A089B1898C91837080648C9377
:10041000938D848D981306C00288F389E02D808126
:100420008F7D80830895EF92FF920F931F93CF9358
:10043000DF93EC0181E0888F9B8D8C8D98131AC01F
:10044000E889F989808185FF15C09FB7F894EE8906
:10045000FF896083E889F989808183708064808363
:100460009FBF81E090E0DF91CF911F910F91FF90AE
:10047000EF900895F62E0B8D10E00F5F1F4F0F7356
:100480001127E02E8C8D8E110CC00FB607FCFACF11
:10049000E889F989808185FFF5CFCE010E94F101BD
:1004A000F1CFEB8DEC0FFD2FF11DE35AFF4FF082E2
:1004B0009FB7F8940B8FEA89FB8980818062CFCF48
:1004C000CF93DF93EC01888D8823B9F0AA89BB898B
:1004D000E889F9898C9185FD03C0808186FD0DC076
:1004E0000FB607FCF7CF8C9185FFF2CF808185FF97
:1004F000EDCFCE010E94F101E9CFDF91CF910895B8
:10050000DB014330C8F0FC01848543E050E0481B28
:10051000510920E0822F90E084179507ECF43C917C
:100520002330B0F48D5E9E4FFC019081832F892390
:1005300089F0909593230AC02C91E42FF0E0ED5EB2
:10054000FE4F9081822F8923909592239C9308954A
:1005500090E0ECCF2F5FDECF80E00895FB0190812B
:10056000892F817090FF03C09E7F90830895892F0B
:1005700082709C7FFACF08958EBD00000DB407FEF7
:10058000FDCF8EB508952F923F924F925F926F925A
:100590007F928F929F92AF92BF92CF92DF92EF9213
:1005A000FF920F931F93CF93DF9300D000D0CDB76E
:1005B000DEB73C01962E5A011901280160E0FC01CA
:1005C00080850E948A00892D0E94BC028E010F5FE7
:1005D0001F4F4E01F5E08F0E911C80E00E94BC027F
:1005E000F80181938F01E815F905B9F72A8189810E
:1005F000F8E08F9FC0011124422F50E065E055952F
:1006000047956A95E1F7840F951F092E000CAA0BF8
:10061000BB0BF50180839183A283B383F101108228
:1006200023FF3AC0F50180819181A281B38132E03C
:10063000880F991FAA1FBB1F3A95D1F72370820F0D
:10064000911DA11DB11D80839183A283B3838081FD
:100650009181A281B381BA2FA92F982F88272B814E
:10066000820F911DA11DB11D80839183A283B3834D
:1006700080819181A281B381BA2FA92F982F8827D9
:100680002C81820F911DA11DB11D80839183A283B6
:10069000B38381E0F101808380E00E94BC02982F47
:1006A0009F70F701908386FB882780F9F201808391
:1006B00010E000E0F7018081081770F408301105A0
:1006C00059F05601A00EB11E80E00E94BC02F50157
:1006D00080830F5F1F4FEECF61E0F30180850F90A5
:1006E0000F900F900F90DF91CF911F910F91FF907E
:1006F000EF90DF90CF90BF90AF909F908F907F90C2
:100700006F905F904F903F902F900C948A006F9263
:100710007F928F929F92AF92BF92CF92DF92EF9291
:10072000FF920F931F93CF93DF93EC015A0149017E
:10073000380160FF23C060E9CE010E94C302F301CB
:1007400080818F83F40180818A83F501808191818A
:10075000A281B3818B839C83AD83BE8380E0DF91D4
:10076000CF911F910F91FF90EF90DF90CF90BF90AE
:10077000AF909F908F907F906F90089561FF02C01F
:1007800064E9DACFF701108284E0E9CF6F927F92BB
:100790008F929F92AF92BF92CF92DF92EF92FF9291
:1007A0000F931F93CF93DF9300D000D0CDB7DEB768
:1007B0004C01162F902F02E4613439F004E46135C6
:1007C00021F000E4613309F000E080E4E11001C0B1
:1007D00080E0DC2CD82A913009F047C02C833B8381
:1007E0009A0144275527822F83708860922F990F92
:1007F000990F990F907E892B8A8375E036952795FE
:100800007A95E1F7298380E590E00E94870060E017
:10081000F40180850E948A00802F0E94BC02CE01D4
:1008200001967C013E0195E0690E711CF7018191F2
:100830007F010E94BC02E614F704C1F78D2D0E94CF
:10084000BC02D12CF12CE12CCE14DF04E1F0F8E055
:10085000EF16F104C1F0F501EE0DFF1D80810E943D
:10086000BC028FEFE81AF80AEFCFC90133E0969582
:1008700087953A95E1F789832295220F207E2A8376
:100880001C821B82C0CF61E0F40180850E948A0037
:1008900080E590E00E94870060E0F40180850E947E
:1008A0008A0082E8113439F084E8113521F081E8BA
:1008B000113309F080E00E94BC0261E0F401808500
:1008C0000F900F900F900F90DF91CF911F910F918C
:1008D000FF90EF90DF90CF90BF90AF909F908F9060
:1008E0007F906F900C948A00DF92EF92FF920F93AB
:1008F0001F93CF93DF9300D000D0CDB7DEB77C013C
:10090000D62E413009F040C00C831B838901222779
:100910003327802F83708860902F990F990F990F3C
:10092000907E892B8A8355E0169507955A95E1F7B5
:10093000098380E590E00E94870060E0F7018085F0
:100940000E948A0082E00E94BC028D2D0E94BC029F
:1009500089810E94BC028A810E94BC028B810E9414
:10096000BC028C810E94BC0261E0F70180850F907F
:100970000F900F900F90DF91CF911F910F91FF90EB
:10098000EF90DF900C948A00C80123E0969587953C
:100990002A95E1F789830295000F007E0A831C8265
:1009A0001B82C7CF1F93CF93DF93EC0180E590E0CC
:1009B0000E94870060E088850E948A0080EA0E9489
:1009C000BC0280E00E94BC02182F61E088850E9472
:1009D0008A00812FDF91CF911F9108950E94D20448
:1009E000837011F484E0089583E008950E94D20496
:1009F000982F9B7A292F30E0959595959595907134
:100A00008370982BA901559547954470942B359583
:100A10002795359527952870892F822B0895FF9269
:100A20000F931F93CF93DF93EC01F62E042F122F19
:100A300080E590E00E94870060E088850E948A003F
:100A400085E00E94BC028F2D0E94BC02802F0E9474
:100A5000BC02812F0E94BC0261E08885DF91CF91AA
:100A60001F910F91FF900C948A00662321F0613052
:100A700061F080E0089520E1413009F020E040E19C
:100A80006CE00E940F0581E0089520E2413009F0FA
:100A900020E040E2F5CF462F4C7121F020E06CE2DF
:100AA0000C940F0508954F925F926F927F92AF92D0
:100AB000BF92CF92EF920F931F93CF93DF93ECEF00
:100AC000E60FED3010F5F0E0E050FF4F10811123FC
:100AD000E1F029013A01462FEC0120E06CE20E948E
:100AE0000F05A3019201612FCE010E94C60380E091
:100AF000DF91CF911F910F91EF90CF90BF90AF906A
:100B00007F906F905F904F90089582E0F1CF0F93A8
:100B10001F93CF93DF93EC018B010E94D204847565
:100B2000F8011082843591F19C8563E070E0691BC7
:100B3000710990E0292F30E0261737073CF54FEF79
:100B4000933020F4F901E05FFE4F40814823E1F447
:100B500080E5933020F4F901E35FFE4F80818F5FE1
:100B6000F801808340E0933020F42D5E3E4FF90180
:100B7000408120E06CE2CE010E940F0580E0DF9111
:100B8000CF911F910F9108959F5FD4CF82E0F7CF4F
:100B90004F925F926F927F928F929F92AF92BF928D
:100BA000CF92DF92EF920F931F93CF93DF931F9219
:100BB000CDB7DEB74C012A013B01122F82E08A1526
:100BC000C8F11982C4010E94D2042A2D30E0F90133
:100BD000E05FFE4F9081892391F082E00F90DF91DA
:100BE000CF911F910F91EF90DF90CF90BF90AF907A
:100BF0009F908F907F906F905F904F900895F90134
:100C0000E35FFE4F80818F5F8983F901ED5EFE4FC8
:100C100020E040816CE2C4010E940F055601CE2CF9
:100C2000E02E012FA30192016981C4010E94C60335
:100C300080E0D4CFBE016F5F7F4FC4010E94870563
:100C4000882361F3CACF20E0611120E440E46BE225
:100C50000C940F050F931F93CF93DF93EC01062F96
:100C6000142F80E590E00E94870060E088850E9454
:100C70008A0082E00E94BC02802F0E94BC02812F69
:100C80000E94BC0261E08885DF91CF911F910F9196
:100C90000C948A001F93CF93DF93EC01162F80E50D
:100CA00090E00E94870060E088850E948A0083E0CF
:100CB0000E94BC02812F0E94BC0280E00E94BC0204
:100CC000182F61E088850E948A00812FDF91CF91E3
:100CD0001F9108956230D1F030F4662351F06130F5
:100CE00071F080E008956330C1F06430D1F76DE0B9
:100CF00007C06CE00E944A068295817008956CE0FE
:100D00000E944A0685FB882780F908956DE00E94BD
:100D10004A0683FB882780F908956DE0EBCFCF93D7
:100D2000DF93EB016DE20E944A06209709F0888369
:100D3000887F09F085E0DF91CF9108952F923F924F
:100D40004F925F926F927F928F929F92AF92BF92DB
:100D5000CF92DF92EF92FF920F931F93CF93DF9387
:100D60001F92CDB7DEB74C012A013B01222E302E57
:100D7000FA2CFC01438254826582768222830783A7
:100D800010E000E093E2A92EB12CBE016F5F7F4F0F
:100D9000C4010E9487050F5F1F4F823049F4023360
:100DA000110511F486E014C0C5010197F1F7EDCFEC
:100DB00002331105B9F35601CE2CE32C022DA30109
:100DC00092016981C4010E94C603F11026C080E02F
:100DD0000F90DF91CF911F910F91FF90EF90DF90D7
:100DE000CF90BF90AF909F908F907F906F905F90CB
:100DF0004F903F902F900895C7010197F1F70F5F33
:100E00001F4F69816150C4010E944A0683FF0BC0D5
:100E10000233110589F787E0DBCF10E000E083E2C1
:100E2000E82EF12CECCF0233110589F6F4CFAF9206
:100E3000CF92DF92EF920F930E949E060F91EF9058
:100E4000DF90CF90AF9008951F93CF93DF93EC0185
:100E5000162F6BE20E944A06482F112341F04C6185
:100E60006BE2CE01DF91CF911F910C942A06437E55
:100E7000F7CFCF92DF92EF92FF921F93CF93DF9342
:100E8000EC01162F8FB7F894C090D802D090D902F9
:100E9000E090DA02F090DB028FBF212F40EE6FE08E
:100EA000CE010E940F056EE0CE010E944A06807EB0
:100EB0001817E9F02FB7F8948091D8029091D902D1
:100EC000A091DA02B091DB022FBF8C199D09AE0907
:100ED000BF09893C9105A105B105F8F281E0DF91D8
:100EE000CF911F91FF90EF90DF90CF90089580E019
:100EF000F6CF0F931F93CF93DF93EC01162FE8816A
:100F0000F9810488F589E02D0995803221F51032A8
:100F100011F16BE2CE010E944A06082F007486FD93
:100F200006C020E440E46BE2CE010E940F0520E4FD
:100F300040E46CE2CE010E940F0560E6CE010E9403
:100F40003907811116C0011106C020E040E46BE2B0
:100F5000CE010E940F0520E040E46CE2CE010E9429
:100F60000F05612FCE01DF91CF911F910F910C944E
:100F7000390781E0DF91CF911F910F9108951F9361
:100F8000CF93DF93EC01142F6230D9F130F4662354
:100F9000A9F0613049F110E01FC0633009F453C07B
:100FA0006430C9F760E80E94790781112FC01130C1
:100FB00009F457C01330A9F520E054C0413089F03E
:100FC00020F0423041F724E00DC020E044E06CE026
:100FD000CE010E940F0511E0812FDF91CF911F916B
:100FE000089525E045E0F3CF413041F020F0423054
:100FF00091F628E004C020E048E0E9CF2AE04AE08A
:10100000E6CF60E80E947907882339F06AE070E053
:1010100080E090E00E944101BECF113021F01330FA
:1010200081F010E007C021E041E06DE0CE010E94B8
:101030000F0511E06B85CE010E947907882361F2CC
:10104000E5CF20E0F1CF60E80E9479078111DECF83
:10105000113021F0133029F720E001C022E042E0F6
:10106000E4CF24E044E0E1CF8F929F92AF92BF9211
:10107000EF92FF920F931F93CF93DF93EC01F62E25
:10108000E42E480159016AE070E080E090E00E949F
:10109000410160E8CE010E947907182F882391F062
:1010A0006AE070E080E090E00E944101812FDF91D2
:1010B000CF911F910F91FF90EF90BF90AF909F90B5
:1010C0008F90089582E0F81639F18F1558F0FF20BF
:1010D000B1F081E0F816D9F06B85CE010E94790756
:1010E000182FDECF84E0F81609F1F816D0F085E06D
:1010F000F812F2CF950184014E2D68E104C09501EC
:1011000084014E2D60E0CE010E947404E5CF95016C
:1011100084014E2D64E0F7CF950184014E2D68E0E7
:10112000F2CF950184014E2D60E1EDCF9501840150
:101130004E2D64E1E8CF8F929F92AF92BF92EF92D3
:10114000FF920F931F93CF93DF93EC01E62EF42EC3
:10115000480159016AE070E080E090E00E9441019E
:1011600060E8CE010E947907182F882391F06AE089
:1011700070E080E090E00E944101812FDF91CF91EB
:101180001F910F91FF90EF90BF90AF909F908F9025
:101190000895E1100DC0950184014F2D60E2CE014C
:1011A0000E9474046B85CE010E947907182FDFCF4F
:1011B00081E0E812F7CF950184014F2D64E2EFCF73
:1011C000EF92FF921F93CF93DF937C01C42FD22F16
:1011D0001FB7F8948091BA02811127C0E6E8F0E0C9
:1011E0008491EAE9F0E09491E82FF0E0EE0FFF1F20
:1011F000E859FF4FA591B491EC91E92321F461E006
:101200008AE00E948A0061E08AE00E94D6008CB5E4
:1012100080618CBD8CB580648CBD61E08DE00E94E6
:10122000D60061E08BE00E94D6008091BA028F5F09
:101230008093BA021FBF80E590E00E94870060E0C3
:10124000D70118968C910E948A0080EC0E94BC0203
:1012500061E0F70180850E948A006AE070E080E02A
:1012600090E00E94410160E8C7010E947907182FB1
:101270006AE070E080E090E0112361F00E9441019B
:1012800081E0111101C080E0DF91CF911F91FF90AB
:10129000EF9008950E944101D23009F4ADC0D330DF
:1012A00009F4F3C0D13009F07AC0C150C33108F05D
:1012B00076C0EC2FF0E0E15AF64F0C943114840A1A
:1012C0008F0A7209920A760979097D09D409D7092A
:1012D000DB09DE09E109E409E709EB09EF09F20995
:1012E000F509F909C7E8DFEF1FE00AC0C5E8D1EF4B
:1012F000FBCFC7E0DEEB19E003C0C7E8DFEF17E084
:10130000412F6AE2C7010E942A064D2F69E2C701F8
:101310000E942A064C2F68E2C7010E942A066AE052
:1013200070E080E090E00E944101C0E340E06C2F5B
:10133000C7010E942A0660E16C0F40E0C7010E94CD
:101340002A0660E26C0F40E0C7010E942A06CF5FC8
:10135000CE3361F740E060E6C7010E942A0640E014
:1013600060E7C7010E942A0643E06BE2C7010E94C2
:101370002A0624E044E660E6C7010E940F0520E04B
:1013800040E660E7C7010E940F05D701ED91FC918F
:101390000288F389E02D60E0C7010995182F6AE003
:1013A00070E080E090E06ACFC7E8DAEFA8CFC7E846
:1013B000DFEF13E0A5CFC7E0DEEBFBCFC7E0DDEA50
:1013C000F8CFC7E8DAEFF5CFC6E8D0EFF2CFC7E83D
:1013D000DAEF11E095CFC5E8D1EF11E491CFC6E87F
:1013E000D0EF8ECFC4E0D0EA8BCFC2E0D2E910E4D8
:1013F00087CFC2E8D0ED84CFC350C13180F6EC2F47
:10140000F0E0EB5FF54F0C943114880A950A160A48
:101410001A0A1E0A210A250A290A2C0A300A330A46
:10142000360A390A3C0A3F0ACF09420AC3E0DCEA1D
:101430001BE066CFC2E0D4EA1CE062CFC3E0D4EA8E
:101440005ACFC4E0D6EB15E05BCFC3E0D4EA14E09A
:1014500057CFC3E0D5EBADCFC4E0DEEB12E050CF09
:10146000C4E0D6EBFBCFC6E0DFEBB3CFC3E0D4EAFA
:10147000B0CFC6E0DFEB44CFC2E0DBE941CFC1E053
:10148000D2E93ECFC1E0D8E83BCFC150C33108F02C
:1014900086CFEC2FF0E0E15BF54F0C9431148B0A12
:1014A000980A620ACF09650ACF09680A6B0A6E0AB0
:1014B000CF09CF09700A730A760A790A7C0ACF0924
:1014C0007F0A820AC7E0DFEB1ACFC4E0D4EA17CF65
:1014D000C7E0DFEB6ECFC6E0D4EB6BCFC7E0C4CF85
:1014E000C6E0D4EB76CFC5E0D1EB73CFC6E0D4EB4A
:1014F00007CFC5E0D1EB04CFC2E0D0E901CFC1E016
:10150000D0E8FECEC0E0FCCFC7E8DFEF1FE3F8CEA7
:10151000C5E0DFEB91CFC7E0DFEB1FE1F1CEC7E81D
:10152000DFEFFBCFC7E0DAEBDFCEC4E0D6EB80CF56
:10153000C7E0DFEBD9CE603211F0FC0163870C9479
:101540007907CF93DF93EC01E881F9810488F5896D
:10155000E02D09956B85681729F0CE01DF91CF91B9
:101560000C94790780E0DF91CF910895CF93DF93BA
:10157000EC01E881F9810488F589E02D0995803234
:1015800031F060E2CE01DF91CF910C94790780E0D9
:10159000DF91CF9108956EE00E944A06807E089503
:1015A000AF92CF92DF92EF920F93CF93DF93CDB7AD
:1015B000DEB728970FB6F894DEBF0FBECDBF1982F5
:1015C0001A821B821C8222EA29836D837E838F8389
:1015D0009887405C5E4F052E000C660B770BAA24A3
:1015E000A394CE0101966C0188E0E82E00E020E093
:1015F0008EE793E00E949E0628960FB6F894DEBF11
:101600000FBECDBFDF91CF910F91EF90DF90CF90C4
:10161000AF900895AF92CF92DF92EF920F93CF9356
:10162000DF93CDB7DEB728970FB6F894DEBF0FBEB5
:10163000CDBFFE01319628E0DF011D922A95E9F722
:1016400020E82983805C9E4FAC01990F660B770BD5
:10165000AA24A3946F0188E0E82E00E020E08EE742
:1016600093E00E949E0628960FB6F894DEBF0FBE48
:10167000CDBFDF91CF910F91EF90DF90CF90AF90E2
:101680000895AF92BF92CF92DF92EF92FF920F93A5
:101690001F93CF93DF93EC017B016A01E881F9810D
:1016A000A28CB38C00A4F1A5E02D09958E01095FF1
:1016B0001F4F9E012E5F3F4FAE014D5F5F4F682F62
:1016C000CE01F5010995DF91CF911F910F91FF9008
:1016D000EF90DF90CF90BF90AF9008958F929F9240
:1016E000AF92BF92CF92DF92EF92FF920F931F9330
:1016F000CF93DF93CDB7DEB729970FB6F894DEBF4F
:101700000FBECDBF8C01CE0101967C0188E0F701B0
:1017100011928A95E9F78EE793E00E94EE048330F8
:10172000D1F7A701BE01675F7F4F8EE793E00E946C
:10173000410B40918103509182036091830370912A
:1017400084034054514061097109012E000C220BA1
:10175000330B401751076207730701F5688570E086
:1017600090E080E00E94B91120E030E040E853E4CE
:101770000E9418126B017C016F8170E090E080E0A4
:101780000E94B9119B01AC01C701B6010E94F11280
:101790000E94CF137093BC026093BB026091BB02A6
:1017A0007091BC028091BD029091BE02681B790BC2
:1017B0007093BC026093BB020091BF021091C00203
:1017C000072E000C880B990B0E94B91120E030E025
:1017D00044E353E40E94181220E030E040E058E374
:1017E0000E9418126B017C01B801012E000C880BBD
:1017F000990B0E94B91120E030E044EB53E40E94C1
:101800001812A70196010E94F1126093C70270930B
:10181000C8028093C9029093CA028090C10290903E
:10182000C202A090C302B090C402A50194010E941C
:10183000F01220E030E040EA51EC0E94B21187FF44
:101840001FC0B8016F5F7F4F7093C0026093BF02EB
:10185000072E000C880B990B0E94B91120E030E094
:1018600044EB53E40E941812A70196010E94F11262
:101870006093C7027093C8028093C9029093CA0212
:10188000A50194016091C7027091C8028091C902BC
:101890009091CA020E94F01220E030E040EA51E448
:1018A0000E940514181614F56091BF027091C002D1
:1018B000615071097093C0026093BF02072E000C43
:1018C000880B990B0E94B91120E030E044EB53E4FF
:1018D0000E941812A70196010E94F1126093C7029C
:1018E0007093C8028093C9029093CA028091C70284
:1018F0009091C802A091C902B091CA028093C1021E
:101900009093C202A093C302B093C40229960FB66B
:10191000F894DEBF0FBECDBFDF91CF911F910F9125
:10192000FF90EF90DF90CF90BF90AF909F908F90FF
:1019300008958F929F92AF92BF92CF92DF92EF92D3
:10194000FF920F931F93CF93DF93EC014B017A012A
:101950006901E881F981A28CB38C00A4F1A5E02D86
:1019600009958E01095F1F4F9E012E5F3F4FA40115
:10197000682FCE01F5010995DF91CF911F910F914D
:10198000FF90EF90DF90CF90BF90AF909F908F909F
:10199000089582E00895633008F062E0FC016487F6
:1019A0000895FC0101900020E9F73197AF01481B31
:1019B000590BBC0180EE92E00C9473018F929F92C0
:1019C000AF92BF920F931F93CF93DF93CDB7DEB744
:1019D000A1970FB6F894DEBF0FBECDBF19A242305B
:1019E00008F44AE08E010F5D1F4F842E912CB12C1C
:1019F000A12CA50194010E940F14E62FB901CA0180
:101A0000EA30F4F4E05DD801EE938D01232B242B12
:101A1000252B79F790E080E0109719F0CD010E9416
:101A2000D10CA1960FB6F894DEBF0FBECDBFDF91EB
:101A3000CF911F910F91BF90AF909F908F9008957D
:101A4000E95CE1CFCF92DF92EF92FF92CF93DF93E9
:101A50006B017C016DE280EE92E00E941302EC01CA
:101A600066277727CB016C197D098E099F094AE00B
:101A70000E94DE0C8C0F9D1FDF91CF91FF90EF90A5
:101A8000DF90CF900895CF93DF930E94D10CEC01AB
:101A900088E991E00E94D10C8C0F9D1FDF91CF91BE
:101AA0000895BC01990F880B990B97FD0C94220D9A
:101AB0004AE00C94DE0C4F925F926F927F928F926D
:101AC0009F92AF92BF92CF92DF92EF92FF920F93CD
:101AD0001F93CF936B017C01742EAC019B010E947C
:101AE0000A14882399F08BE991E0CF911F910F910F
:101AF000FF90EF90DF90CF90BF90AF909F908F902E
:101B00007F906F905F904F900C94D10C46015701DD
:101B1000E894B7F82FEF3FEF4FE75FE7C501B40157
:101B20000E940A1481110DC02FEF3FEF4FE75FE7CE
:101B3000C501B4010E94B21118161CF48FE991E09E
:101B4000D4CF2FEF3FEF4FE75FE4C701B6010E940C
:101B5000051418161CF483EA91E0C7CF2FEF3FEF6E
:101B60004FE75FECC701B6010E94B21187FDF3CFCA
:101B700020E030E0A901C701B6010E94B21110E0D7
:101B800000E087FF0AC06DE280EE92E00E9413023F
:101B90008C01F7FAF094F7F8F094C0E060E070E0A0
:101BA00080E09FE37C1641F020E030E040E251E429
:101BB0000E945D13CF5FF6CFA70196010E94F1123C
:101BC0002B013C010E94D6134B015C014AE00E94AC
:101BD000DE0C7C01E00EF11ECC23C1F1C501B40185
:101BE0000E94B7119B01AC01C301B2010E94F01227
:101BF0004B015C016EE280EE92E00E941302E80E5F
:101C0000F91EC15018F120E030E040E251E4C50176
:101C1000B4010E9418122B013C010E94D6134B0103
:101C2000B12CA12C4AE0C501B4010E94DE0CE80EE3
:101C3000F91EC501B4010E94B7119B01AC01C3019B
:101C4000B2010E94F0124B015C01DBCFC701CF91C2
:101C50001F910F91FF90EF90DF90CF90BF90AF90CA
:101C60009F908F907F906F905F904F9008950E940B
:101C700037141F920F920FB60F9211242F933F9398
:101C80008F939F93AF93BF938091D8029091D90285
:101C9000A091DA02B091DB023091D70223E0230F4A
:101CA0002D3758F50196A11DB11D2093D7028093C1
:101CB000D8029093D902A093DA02B093DB0280910C
:101CC000DC029091DD02A091DE02B091DF0201966C
:101CD000A11DB11D8093DC029093DD02A093DE0272
:101CE000B093DF02BF91AF919F918F913F912F9160
:101CF0000F900FBE0F901F90189526E8230F0296A5
:101D0000A11DB11DD2CF1F920F920FB60F921124B9
:101D10002F933F934F935F936F937F938F939F93F3
:101D2000AF93BF93EF93FF9380EE92E00E94F10197
:101D3000FF91EF91BF91AF919F918F917F916F91A3
:101D40005F914F913F912F910F900FBE0F901F9079
:101D500018951F920F920FB60F9211242F938F9305
:101D60009F93EF93FF93E091F002F091F102808155
:101D7000E091F602F091F70282FD1BC09081809104
:101D8000F9028F5F8F732091FA02821741F0E09180
:101D9000F902F0E0E052FD4F958F8093F902FF9138
:101DA000EF919F918F912F910F900FBE0F901F90E9
:101DB00018958081F4CFCF93DF93E0EEF2E01382A9
:101DC000128288EE93E0A0E0B0E084839583A6833E
:101DD000B7838AE191E09183808385EC90E09587D9
:101DE000848784EC90E09787868780EC90E0918BE5
:101DF000808B81EC90E0938B828B82EC90E0958BD2
:101E0000848B86EC90E0978B868B118E128E138ECE
:101E1000148ECEE7D3E08CE291E0998388838DE73E
:101E200093E09A8789878AE0888761E00E94D600DC
:101E300061E088850E948A0084E691E09983888326
:101E40001C86DF91CF910895CF93DF93CDB7DEB796
:101E500028970FB6F894DEBF0FBECDBF789484B537
:101E6000826084BD84B5816084BD85B5826085BD96
:101E700085B5816085BD80916E00816080936E0024
:101E80001092810080918100826080938100809116
:101E900081008160809381008091800081608093C7
:101EA00080008091B10084608093B1008091B00087
:101EB00081608093B00080917A00846080937A0082
:101EC00080917A00826080937A0080917A008160AC
:101ED00080937A0080917A00806880937A001092D3
:101EE000C100E091F002F091F10282E08083E09184
:101EF000EC02F091ED021082E091EE02F091EF021F
:101F000080E180831092F802E091F402F091F502F2
:101F100086E08083E091F202F091F302808180619B
:101F20008083E091F202F091F302808188608083E7
:101F3000E091F202F091F302808180688083E09169
:101F4000F202F091F30280818F7D808360E08EE069
:101F50000E94D60060E080E10E94D6008EE00E94E0
:101F6000070180E10E94070121E040E150E060E0CC
:101F700070E08EE793E00E94E008882359F087EA3A
:101F800091E00E94430D64EF71E080E090E00E94D8
:101F90004101EACF8AE991E00E94430D8AE991E08C
:101FA0000E94430D8AE991E00E94430D8AE991E085
:101FB0000E94430D8AE991E00E94430D80EC91E07C
:101FC0000E94430D80EC91E00E94430D80EC91E073
:101FD0000E94430D88E092E00E94430D80EC91E066
:101FE0000E94430D80EC91E00E94430D80EC91E053
:101FF0000E94430D80EC91E00E94430D8AE991E03C
:102000000E94430D1092C1021092C2021092C302AC
:102010001092C4021092C0021092BF021092BE022F
:102020001092BD0282E090E00E940A0B64EF71E022
:1020300080E090E00E94410182E090E00E946E0BFF
:1020400083E090E00E940A0B64EF71E080E090E092
:102050000E94410183E090E00E946E0B8AE991E0CA
:102060000E94430D80EC91E00E94430D88E492E0D1
:102070000E94430D80EC91E00E94430D80EE92E0BF
:102080000E94AF018335D1F772E4272E33243394B5
:10209000412C512CE2E08E2E912CF8E0FF2ECE0147
:1020A00001963C0118E8F3012F2D11922A95E9F7CA
:1020B0001983AA24A394630158E0E52E00E020E0F0
:1020C000B201A1018EE793E00E949E06C4010E9426
:1020D0006E0B64EF71E080E090E00E944101A4018A
:1020E00060E070E0CB010E94D00A64EF71E080E014
:1020F00090E00E944101C4010E946E0B8FEF281AEC
:10210000380A480A580A93E08916910409F00BC16D
:102110008091BB029091BC029093BE028093BD025D
:102120001092C0021092BF021092C1021092C2021D
:102130001092C3021092C4028BE792E00E94430DFA
:102140001092CE021092CD028AE090E09093CC02E1
:102150008093CB02412C3DE2532E31E3632E772452
:10216000739440E0242E40E0342E0E941C014B0169
:102170005C018092D3029092D402A092D502B092D8
:10218000D602A30192010E940F146B017C01C09240
:10219000CF02D092D002E092D102F092D20280E13E
:1021A0000E9407018EE00E9407018091CD0290916C
:1021B000CE0201969093CE028093CD02D701C60144
:1021C000880F991FAA1FBB1F81159D42A143B140D3
:1021D00008F0ADC0A8ECB0E0A70196010E94D612AD
:1021E000A30192010E940F142E533E4F3093C6025A
:1021F0002093C5026091C5027091C602072E000CA3
:10220000880B990B0E94B9112091C7023091C80226
:102210004091C9025091CA020E94F01220E030E0C1
:1022200040EF51E40E9418120E94CF1342E050E0A8
:102230000E94D00A82E090E00E946E0B2091CD02B5
:102240003091CE028091CB029091CC0228173907B1
:102250000CF448C01092CE021092CD028AE992E0AE
:102260000E94D10CC501B4010E94B7112DEB37E3D8
:1022700046E855E30E94181242E00E945B0D8DE98A
:1022800092E00E94D10C82E090E00E94510D85EA1C
:1022900092E00E94D10C6091C7027091C8028091B7
:1022A000C9029091CA0242E00E945B0D8BEA92E063
:1022B0000E94D10C82E090E00E94510D89EA92E0E8
:1022C0000E94D10C6091C5027091C602072E000CCD
:1022D000880B990B97FF42C00E94220D88E991E07C
:1022E0000E94D10C0091D3021091D4020E941C01D3
:1022F000061B170B023FF8ED1F0748F0000F111FD8
:10230000000F111FC801855C93460197F1F7211456
:10231000310409F42ACF0E94DD01882309F425CF76
:102320000E94000022CF63E0862E912CBCCEA70134
:1023300096012058364948495109A8ECB0E00E945E
:10234000D612A30192010E940F1486E292E0821B32
:10235000930B9093C6028093C5024CCF4AE00E9433
:10236000DE0CBCCF0E94F41108F481E00895E894DB
:1023700009C097FB3EF490958095709561957F4FCD
:102380008F4F9F4F9923A9F0F92F96E9BB2793957B
:10239000F695879577956795B795F111F8CFFAF48B
:1023A000BB0F11F460FF1BC06F5F7F4F8F4F9F4FBC
:1023B00016C0882311F096E911C0772321F09EE81A
:1023C000872F762F05C0662371F096E8862F70E080
:1023D00060E02AF09A95660F771F881FDAF7880F5A
:1023E0009695879597F90895990F0008550FAA0BB0
:1023F000E0E8FEEF16161706E807F907C0F0121618
:102400001306E407F50798F0621B730B840B950B1A
:1024100039F40A2661F0232B242B252B21F408956F
:102420000A2609F4A140A6958FEF811D811D08950C
:102430000E942B120C949C120E948E1238F00E9463
:10244000951220F0952311F00C9485120C948B12A8
:1024500011240C94D0120E94AD1270F3959FC1F319
:10246000950F50E0551F629FF001729FBB27F00D42
:10247000B11D639FAA27F00DB11DAA1F649F662797
:10248000B00DA11D661F829F2227B00DA11D621FE6
:10249000739FB00DA11D621F839FA00D611D221FA0
:1024A000749F3327A00D611D231F849F600D211D84
:1024B000822F762F6A2F11249F5750409AF0F1F007
:1024C00088234AF0EE0FFF1FBB1F661F771F881F70
:1024D00091505040A9F79E3F510580F00C94851211
:1024E0000C94D0125F3FE4F3983ED4F38695779531
:1024F0006795B795F795E7959F5FC1F7FE2B880F16
:10250000911D9695879597F9089597F99F6780E8AB
:1025100070E060E008959FEF80EC089500240A9435
:102520001616170618060906089500240A941216AE
:102530001306140605060895092E0394000C11F4E1
:10254000882352F0BB0F40F4BF2B11F460FF04C08E
:102550006F5F7F4F8F4F9F4F089557FD9058440FE7
:10256000551F59F05F3F71F04795880F97FB991FF2
:1025700061F09F3F79F087950895121613061406AF
:10258000551FF2CF4695F1DF08C01616170618063C
:10259000991FF1CF86957105610508940895E89417
:1025A000BB2766277727CB0197F908950E94E11290
:1025B000A59F900DB49F900DA49F800D911D112497
:1025C0000895A29FB001B39FC001A39F700D811D0C
:1025D0001124911DB29F700D811D1124911D08952C
:1025E0005058BB27AA270E9408130C949C120E94E3
:1025F0008E1238F00E94951220F039F49F3F19F4A2
:1026000026F40C948B120EF4E095E7FB0C948512E3
:10261000E92F0E94AD1258F3BA17620773078407B7
:10262000950720F079F4A6F50C94CF120EF4E095FE
:102630000B2EBA2FA02D0B01B90190010C01CA017C
:10264000A0011124FF27591B99F0593F50F4503E27
:1026500068F11A16F040A22F232F342F4427585F19
:10266000F3CF469537952795A795F0405395C9F731
:102670007EF41F16BA0B620B730B840BBAF09150E9
:10268000A1F0FF0FBB1F661F771F881FC2F70EC088
:10269000BA0F621F731F841F48F48795779567955B
:1026A000B795F7959E3F08F0B0CF9395880F08F047
:1026B0009927EE0F9795879508950E9471130C94B2
:1026C0009C120E94951258F00E948E1240F029F43C
:1026D0005F3F29F00C94851251110C94D0120C9488
:1026E0008B120E94AD1268F39923B1F3552391F335
:1026F000951B550BBB27AA2762177307840738F071
:102700009F5F5F4F220F331F441FAA1FA9F335D0CD
:102710000E2E3AF0E0E832D091505040E695001C81
:10272000CAF72BD0FE2F29D0660F771F881FBB1F3B
:10273000261737074807AB07B0E809F0BB0B802D19
:10274000BF01FF2793585F4F3AF09E3F510578F045
:102750000C9485120C94D0125F3FE4F3983ED4F3AE
:10276000869577956795B795F7959F5FC9F7880F19
:10277000911D9695879597F90895E1E0660F771F6B
:10278000881FBB1F621773078407BA0720F0621BFC
:10279000730B840BBA0BEE1F88F7E09508950E9427
:1027A000D6136894B1110C94D01208950E94B512FA
:1027B00088F09F5798F0B92F9927B751B0F0E1F002
:1027C000660F771F881F991F1AF0BA95C9F714C0B2
:1027D000B13091F00E94CF12B1E008950C94CF1265
:1027E000672F782F8827B85F39F0B93FCCF38695EB
:1027F00077956795B395D9F73EF490958095709548
:1028000061957F4F8F4F9F4F08950E94F41108F4F8
:102810008FEF08950E94F411880B990B0895A1E29F
:102820001A2EAA1BBB1BFD010DC0AA1FBB1FEE1F4A
:10283000FF1FA217B307E407F50720F0A21BB30B95
:10284000E40BF50B661F771F881F991F1A9469F711
:1028500060957095809590959B01AC01BD01CF016D
:102860000895EE0FFF1F0590F491E02D099481E08B
:0C28700090E0F8940C943C14F894FFCF16
:10287C0031000000410000000000000051304050C9
:10288C000410400408100000000013027301A001A2
:10289C006002D101AF01C30100000000370E370EFA
:1028AC00370E370E370E370E370E370E370E370EF4
:1028BC00370E370E370E370E370E370E370E370EE4
:1028CC00370E370E370E370E370E370E370E370ED4
:1028DC00000000002407CB0CC90CE0089B0834084E
:1028EC002306B60AA10A9B0ACB0A8F06EE048703BD
:1028FC00990C410BC805530517074B05F604AE029E
:10290C008002BF0735056A060D0A006E616E00690C
:10291C006E66006F76660043414E20696E697420C6
:10292C006661696C2C207265747279202E2E2E00D3
:10293C002A2A2A2A2A2A2A2A2A2A2A2A2A2A2A2AEB
:10294C002A2A2A2A2A2A2A2A2A2A2A2A2A2A2A2ADB
:10295C002A2A2A2A2A2A2A2A2A2A2A2A2A2A2A2ACB
:10296C002A2A2A2A2A2A2A2A2A2A2A2A2A2A2A2ABB
:10297C002A2A2A2A2A2A2A002053657269616C2085
:10298C006C696E6B20616E642043414E20696E69E8
:10299C007469616C697A6174696F6E2077656E74A5
:1029AC00206F6B2120506F776572204F4E2074681A
:1029BC0065206D6F746F7200205475726E20746890
:1029CC006520726F746F7220696E20697473205A5F
:1029DC0045524F20706F736974696F6E207468650F
:1029EC007920747970652027532700456E64206F19
:1029FC006620496E697469616C697A6174696F6E7D
:102A0C0020726F7574696E652E00743A002C4D6FD0
:102A1C00746F725F005F506F733A002C434F4E53CC
:0A2A2C0049474E455F4D4F5400002E
:00000001FF
